:03000000020030CB
:03000B0002005B95
:10003000900400758901758A3C758CF6D28CD2AF1C
:10004000D2A975303F75313F75323F75333F0EBED3
:1000500000010F1200901200AB80F330A40AC2A47A
:10006000D2A585318002008930A50AC2A5D2A68515
:10007000328002008930A60AC2A6D2A78533800248
:100080000089C2A7D2A4853080758A3C758CF6326F
:10009000EE540F93F530EE54F0C493F531EF540F56
:1000A00093F532EF54F0C493F53322786479FAD99A
:0400B000FED8FA225A
:100400003F065B4F666D7D077F6F777C395E797144
:00000001FF
