:03000000020030CB
:03000B0002006E82
:10003000900400758901758A3C758CF6D28CD2AF1C
:10004000D2A975303F75313F75323F75333F20A1DE
:100050000D0EBE00010F1200A31200BE80F020A200
:10006000ED1EBEFF011F1200A31200BE80F030A4DF
:100070000AC2A4D2A585318002009C30A50AC2A57F
:10008000D2A685328002009C30A60AC2A6D2A785DD
:10009000338002009CC2A7D2A4853080758A3C754B
:1000A0008CF632EE540F93F530EE54F0C493F531E4
:1000B000EF540F93F532EF54F0C493F53322786484
:0700C00079FAD9FED8FA22FB
:100400003F065B4F666D7D077F6F777C395E797144
:00000001FF
