:03000000020030CB
:03000B000200D917
:10003000900200758901758A3C758CF6D28CD2AF1E
:10004000D2A975303F75313F75323F75333F12018C
:100050001E50FB853233853132853031B4870575CA
:10006000303F80EAB4470575300680E2B427057555
:10007000305B80DAB4170575304F80D2B48B0575CC
:10008000306680CAB44B0575306D80C2B42B0575DF
:10009000307D80BAB41B0575300780B2B48D05750C
:1000A000307F80AAB44D0575306F80A2B42D0575E0
:1000B0003077809AB41D0575307C8092B48E0575BA
:1000C0003039808AB44E0575305E8082B42E057555
:1000D0003079014E753071014E30A40AC2A4D2A508
:1000E00085318002010730A50AC2A5D2A6853280DB
:1000F00002010730A60AC2A6D2A7853380020107F3
:10010000C2A7D2A4853080758A3C758CF67F32DF19
:10011000FEE5A0540FB40F02C332D3E5A0327A0437
:0B01200079C878FAD8FED9FADAF62286
:00000001FF
